{
  "_format": "hh-sol-artifact-1",
  "contractName": "FakeProdDetector",
  "sourceName": "contracts/FakeProdDetector.sol",
  "abi": [
    {
      "anonymous": false,
      "inputs": [
        {
          "indexed": true,
          "internalType": "bytes32",
          "name": "id",
          "type": "bytes32"
        },
        {
          "indexed": false,
          "internalType": "string",
          "name": "name",
          "type": "string"
        },
        {
          "indexed": false,
          "internalType": "string",
          "name": "color",
          "type": "string"
        },
        {
          "indexed": false,
          "internalType": "string",
          "name": "material",
          "type": "string"
        },
        {
          "indexed": false,
          "internalType": "uint256",
          "name": "price",
          "type": "uint256"
        },
        {
          "indexed": false,
          "internalType": "uint256",
          "name": "year",
          "type": "uint256"
        }
      ],
      "name": "ProductUploaded",
      "type": "event"
    },
    {
      "inputs": [
        {
          "internalType": "bytes32",
          "name": "id",
          "type": "bytes32"
        }
      ],
      "name": "getProduct",
      "outputs": [
        {
          "internalType": "string",
          "name": "name",
          "type": "string"
        },
        {
          "internalType": "string",
          "name": "color",
          "type": "string"
        },
        {
          "internalType": "string",
          "name": "material",
          "type": "string"
        },
        {
          "internalType": "uint256",
          "name": "price",
          "type": "uint256"
        },
        {
          "internalType": "uint256",
          "name": "year",
          "type": "uint256"
        }
      ],
      "stateMutability": "view",
      "type": "function"
    },
    {
      "inputs": [
        {
          "internalType": "bytes32",
          "name": "id",
          "type": "bytes32"
        },
        {
          "internalType": "string",
          "name": "name",
          "type": "string"
        },
        {
          "internalType": "string",
          "name": "color",
          "type": "string"
        },
        {
          "internalType": "string",
          "name": "material",
          "type": "string"
        },
        {
          "internalType": "uint256",
          "name": "price",
          "type": "uint256"
        },
        {
          "internalType": "uint256",
          "name": "year",
          "type": "uint256"
        }
      ],
      "name": "uploadProduct",
      "outputs": [],
      "stateMutability": "nonpayable",
      "type": "function"
    }
  ],
  "bytecode": "0x608060405234801561001057600080fd5b50610a63806100206000396000f3fe608060405234801561001057600080fd5b50600436106100365760003560e01c80630106f7a51461003b5780633a20e9df14610057575b600080fd5b6100556004803603810190610050919061054b565b61008b565b005b610071600480360381019061006c919061062c565b610165565b6040516100829594939291906106e7565b60405180910390f35b6040518060a001604052808681526020018581526020018481526020018381526020018281525060008088815260200190815260200160002060008201518160000190816100d9919061095b565b5060208201518160010190816100ef919061095b565b506040820151816002019081610105919061095b565b506060820151816003015560808201518160040155905050857fbcdfea2fc234b9d77453c5dec7100d95414b17cbd720d28413d6654287268a3986868686866040516101559594939291906106e7565b60405180910390a2505050505050565b606080606060008060008060008881526020019081526020016000206040518060a001604052908160008201805461019c9061077e565b80601f01602080910402602001604051908101604052809291908181526020018280546101c89061077e565b80156102155780601f106101ea57610100808354040283529160200191610215565b820191906000526020600020905b8154815290600101906020018083116101f857829003601f168201915b5050505050815260200160018201805461022e9061077e565b80601f016020809104026020016040519081016040528092919081815260200182805461025a9061077e565b80156102a75780601f1061027c576101008083540402835291602001916102a7565b820191906000526020600020905b81548152906001019060200180831161028a57829003601f168201915b505050505081526020016002820180546102c09061077e565b80601f01602080910402602001604051908101604052809291908181526020018280546102ec9061077e565b80156103395780601f1061030e57610100808354040283529160200191610339565b820191906000526020600020905b81548152906001019060200180831161031c57829003601f168201915b5050505050815260200160038201548152602001600482015481525050905080600001518160200151826040015183606001518460800151955095509550955095505091939590929450565b6000604051905090565b600080fd5b600080fd5b6000819050919050565b6103ac81610399565b81146103b757600080fd5b50565b6000813590506103c9816103a3565b92915050565b600080fd5b600080fd5b6000601f19601f8301169050919050565b7f4e487b7100000000000000000000000000000000000000000000000000000000600052604160045260246000fd5b610422826103d9565b810181811067ffffffffffffffff82111715610441576104406103ea565b5b80604052505050565b6000610454610385565b90506104608282610419565b919050565b600067ffffffffffffffff8211156104805761047f6103ea565b5b610489826103d9565b9050602081019050919050565b82818337600083830152505050565b60006104b86104b384610465565b61044a565b9050828152602081018484840111156104d4576104d36103d4565b5b6104df848285610496565b509392505050565b600082601f8301126104fc576104fb6103cf565b5b813561050c8482602086016104a5565b91505092915050565b6000819050919050565b61052881610515565b811461053357600080fd5b50565b6000813590506105458161051f565b92915050565b60008060008060008060c087890312156105685761056761038f565b5b600061057689828a016103ba565b965050602087013567ffffffffffffffff81111561059757610596610394565b5b6105a389828a016104e7565b955050604087013567ffffffffffffffff8111156105c4576105c3610394565b5b6105d089828a016104e7565b945050606087013567ffffffffffffffff8111156105f1576105f0610394565b5b6105fd89828a016104e7565b935050608061060e89828a01610536565b92505060a061061f89828a01610536565b9150509295509295509295565b6000602082840312156106425761064161038f565b5b6000610650848285016103ba565b91505092915050565b600081519050919050565b600082825260208201905092915050565b60005b83811015610693578082015181840152602081019050610678565b60008484015250505050565b60006106aa82610659565b6106b48185610664565b93506106c4818560208601610675565b6106cd816103d9565b840191505092915050565b6106e181610515565b82525050565b600060a0820190508181036000830152610701818861069f565b90508181036020830152610715818761069f565b90508181036040830152610729818661069f565b905061073860608301856106d8565b61074560808301846106d8565b9695505050505050565b7f4e487b7100000000000000000000000000000000000000000000000000000000600052602260045260246000fd5b6000600282049050600182168061079657607f821691505b6020821081036107a9576107a861074f565b5b50919050565b60008190508160005260206000209050919050565b60006020601f8301049050919050565b600082821b905092915050565b6000600883026108117fffffffffffffffffffffffffffffffffffffffffffffffffffffffffffffffff826107d4565b61081b86836107d4565b95508019841693508086168417925050509392505050565b6000819050919050565b600061085861085361084e84610515565b610833565b610515565b9050919050565b6000819050919050565b6108728361083d565b61088661087e8261085f565b8484546107e1565b825550505050565b600090565b61089b61088e565b6108a6818484610869565b505050565b5b818110156108ca576108bf600082610893565b6001810190506108ac565b5050565b601f82111561090f576108e0816107af565b6108e9846107c4565b810160208510156108f8578190505b61090c610904856107c4565b8301826108ab565b50505b505050565b600082821c905092915050565b600061093260001984600802610914565b1980831691505092915050565b600061094b8383610921565b9150826002028217905092915050565b61096482610659565b67ffffffffffffffff81111561097d5761097c6103ea565b5b610987825461077e565b6109928282856108ce565b600060209050601f8311600181146109c557600084156109b3578287015190505b6109bd858261093f565b865550610a25565b601f1984166109d3866107af565b60005b828110156109fb578489015182556001820191506020850194506020810190506109d6565b86831015610a185784890151610a14601f891682610921565b8355505b6001600288020188555050505b50505050505056fea2646970667358221220792fa804c9e25878dc99821193c3154384d208702fd32aeac199f65f4ddb6d5964736f6c63430008150033",
  "linkReferences": {},
  "deployedLinkReferences": {}
}